{
  "contracts/generatedContract.sol": {
    "SoccerGame": {
      "abi": [
        {
          "inputs": [
            {
              "internalType": "string[]",
              "name": "teamAPlayers",
              "type": "string[]"
            },
            {
              "internalType": "string[]",
              "name": "teamBPlayers",
              "type": "string[]"
            }
          ],
          "stateMutability": "nonpayable",
          "type": "constructor"
        },
        {
          "anonymous": false,
          "inputs": [
            {
              "indexed": false,
              "internalType": "string",
              "name": "winner",
              "type": "string"
            }
          ],
          "name": "GameEnded",
          "type": "event"
        },
        {
          "anonymous": false,
          "inputs": [],
          "name": "GameStarted",
          "type": "event"
        },
        {
          "anonymous": false,
          "inputs": [
            {
              "indexed": false,
              "internalType": "string",
              "name": "teamName",
              "type": "string"
            },
            {
              "indexed": false,
              "internalType": "uint8",
              "name": "newScore",
              "type": "uint8"
            }
          ],
          "name": "GoalScored",
          "type": "event"
        },
        {
          "inputs": [],
          "name": "declareWinner",
          "outputs": [
            {
              "internalType": "string",
              "name": "winner",
              "type": "string"
            }
          ],
          "stateMutability": "view",
          "type": "function"
        },
        {
          "inputs": [],
          "name": "endGame",
          "outputs": [],
          "stateMutability": "nonpayable",
          "type": "function"
        },
        {
          "inputs": [],
          "name": "gameStarted",
          "outputs": [
            {
              "internalType": "bool",
              "name": "",
              "type": "bool"
            }
          ],
          "stateMutability": "view",
          "type": "function"
        },
        {
          "inputs": [],
          "name": "owner",
          "outputs": [
            {
              "internalType": "address",
              "name": "",
              "type": "address"
            }
          ],
          "stateMutability": "view",
          "type": "function"
        },
        {
          "inputs": [],
          "name": "startGame",
          "outputs": [],
          "stateMutability": "nonpayable",
          "type": "function"
        },
        {
          "inputs": [],
          "name": "teamA",
          "outputs": [
            {
              "internalType": "string",
              "name": "name",
              "type": "string"
            },
            {
              "internalType": "uint8",
              "name": "score",
              "type": "uint8"
            }
          ],
          "stateMutability": "view",
          "type": "function"
        },
        {
          "inputs": [],
          "name": "teamB",
          "outputs": [
            {
              "internalType": "string",
              "name": "name",
              "type": "string"
            },
            {
              "internalType": "uint8",
              "name": "score",
              "type": "uint8"
            }
          ],
          "stateMutability": "view",
          "type": "function"
        },
        {
          "inputs": [
            {
              "internalType": "string",
              "name": "teamName",
              "type": "string"
            },
            {
              "internalType": "uint8",
              "name": "goals",
              "type": "uint8"
            }
          ],
          "name": "updateScore",
          "outputs": [],
          "stateMutability": "nonpayable",
          "type": "function"
        }
      ],
      "evm": {
        "bytecode": {
          "linkReferences": {},
          "object": "60806040523480156200001157600080fd5b50604051620017bc380380620017bc833981810160405281019062000037919062000478565b33600660006101000a81548173ffffffffffffffffffffffffffffffffffffffff021916908373ffffffffffffffffffffffffffffffffffffffff16021790555060405180606001604052806040518060400160405280600681526020017f5465616d204100000000000000000000000000000000000000000000000000008152508152602001600060ff16815260200183815250600080820151816000019080519060200190620000eb929190620001ef565b5060208201518160010160006101000a81548160ff021916908360ff16021790555060408201518160020190805190602001906200012b92919062000280565b5090505060405180606001604052806040518060400160405280600681526020017f5465616d204200000000000000000000000000000000000000000000000000008152508152602001600060ff1681526020018281525060036000820151816000019080519060200190620001a3929190620001ef565b5060208201518160010160006101000a81548160ff021916908360ff1602179055506040820151816002019080519060200190620001e392919062000280565b5090505050506200064b565b828054620001fd90620005b7565b90600052602060002090601f0160209004810192826200022157600085556200026d565b82601f106200023c57805160ff19168380011785556200026d565b828001600101855582156200026d579182015b828111156200026c5782518255916020019190600101906200024f565b5b5090506200027c9190620002e7565b5090565b828054828255906000526020600020908101928215620002d4579160200282015b82811115620002d3578251829080519060200190620002c2929190620001ef565b5091602001919060010190620002a1565b5b509050620002e3919062000306565b5090565b5b8082111562000302576000816000905550600101620002e8565b5090565b5b808211156200032a57600081816200032091906200032e565b5060010162000307565b5090565b5080546200033c90620005b7565b6000825580601f1062000350575062000371565b601f016020900490600052602060002090810190620003709190620002e7565b5b50565b60006200038b62000385846200051f565b620004eb565b9050808382526020820190508260005b85811015620003cf5781518501620003b488826200044b565b8452602084019350602083019250506001810190506200039b565b5050509392505050565b6000620003f0620003ea846200054e565b620004eb565b9050828152602081018484840111156200040957600080fd5b6200041684828562000581565b509392505050565b600082601f8301126200043057600080fd5b81516200044284826020860162000374565b91505092915050565b600082601f8301126200045d57600080fd5b81516200046f848260208601620003d9565b91505092915050565b600080604083850312156200048c57600080fd5b600083015167ffffffffffffffff811115620004a757600080fd5b620004b5858286016200041e565b925050602083015167ffffffffffffffff811115620004d357600080fd5b620004e1858286016200041e565b9150509250929050565b6000604051905081810181811067ffffffffffffffff821117156200051557620005146200061c565b5b8060405250919050565b600067ffffffffffffffff8211156200053d576200053c6200061c565b5b602082029050602081019050919050565b600067ffffffffffffffff8211156200056c576200056b6200061c565b5b601f19601f8301169050602081019050919050565b60005b83811015620005a157808201518184015260208101905062000584565b83811115620005b1576000848401525b50505050565b60006002820490506001821680620005d057607f821691505b60208210811415620005e757620005e6620005ed565b5b50919050565b7f4e487b7100000000000000000000000000000000000000000000000000000000600052602260045260246000fd5b7f4e487b7100000000000000000000000000000000000000000000000000000000600052604160045260246000fd5b611161806200065b6000396000f3fe608060405234801561001057600080fd5b50600436106100885760003560e01c80638aa7c3e81161005b5780638aa7c3e8146100f25780638da5cb5b14610111578063d65ab5f21461012f578063e4a753dd1461013957610088565b806314034bd21461008d5780635e123ce4146100ab5780636cbc2ded146100c9578063826df9aa146100d3575b600080fd5b610095610155565b6040516100a29190610dcc565b60405180910390f35b6100b361036f565b6040516100c09190610db1565b60405180910390f35b6100d1610382565b005b6100db6104c2565b6040516100e9929190610dee565b60405180910390f35b6100fa610569565b604051610108929190610dee565b60405180910390f35b610119610610565b6040516101269190610d96565b60405180910390f35b610137610636565b005b610153600480360381019061014e9190610aa0565b61079c565b005b6060600660149054906101000a900460ff166101a6576040517f08c379a000000000000000000000000000000000000000000000000000000000815260040161019d90610e4e565b60405180910390fd5b600360010160009054906101000a900460ff1660ff16600060010160009054906101000a900460ff1660ff16111561026c576000800180546101e790611044565b80601f016020809104026020016040519081016040528092919081815260200182805461021390611044565b80156102605780601f1061023557610100808354040283529160200191610260565b820191906000526020600020905b81548152906001019060200180831161024357829003601f168201915b5050505050905061036c565b600060010160009054906101000a900460ff1660ff16600360010160009054906101000a900460ff1660ff16111561033357600360000180546102ae90611044565b80601f01602080910402602001604051908101604052809291908181526020018280546102da90611044565b80156103275780601f106102fc57610100808354040283529160200191610327565b820191906000526020600020905b81548152906001019060200180831161030a57829003601f168201915b5050505050905061036c565b6040518060400160405280600c81526020017f497427732061206472617721000000000000000000000000000000000000000081525090505b90565b600660149054906101000a900460ff1681565b600660009054906101000a900473ffffffffffffffffffffffffffffffffffffffff1673ffffffffffffffffffffffffffffffffffffffff163373ffffffffffffffffffffffffffffffffffffffff1614610412576040517f08c379a000000000000000000000000000000000000000000000000000000000815260040161040990610e6e565b60405180910390fd5b600660149054906101000a900460ff16610461576040517f08c379a000000000000000000000000000000000000000000000000000000000815260040161045890610e4e565b60405180910390fd5b600061046b610155565b90507f056e3895424a85ef26c4c78d9988dea28d97c77c140b919289906403e80171708160405161049c9190610dcc565b60405180910390a16000600660146101000a81548160ff02191690831515021790555050565b60008060000180546104d390611044565b80601f01602080910402602001604051908101604052809291908181526020018280546104ff90611044565b801561054c5780601f106105215761010080835404028352916020019161054c565b820191906000526020600020905b81548152906001019060200180831161052f57829003601f168201915b5050505050908060010160009054906101000a900460ff16905082565b600380600001805461057a90611044565b80601f01602080910402602001604051908101604052809291908181526020018280546105a690611044565b80156105f35780601f106105c8576101008083540402835291602001916105f3565b820191906000526020600020905b8154815290600101906020018083116105d657829003601f168201915b5050505050908060010160009054906101000a900460ff16905082565b600660009054906101000a900473ffffffffffffffffffffffffffffffffffffffff1681565b600660009054906101000a900473ffffffffffffffffffffffffffffffffffffffff1673ffffffffffffffffffffffffffffffffffffffff163373ffffffffffffffffffffffffffffffffffffffff16146106c6576040517f08c379a00000000000000000000000000000000000000000000000000000000081526004016106bd90610e6e565b60405180910390fd5b600660149054906101000a900460ff1615610716576040517f08c379a000000000000000000000000000000000000000000000000000000000815260040161070d90610eae565b60405180910390fd5b60008060010160006101000a81548160ff021916908360ff1602179055506000600360010160006101000a81548160ff021916908360ff1602179055506001600660146101000a81548160ff0219169083151502179055507f762f260439bb4be3ef6e4dc2786e2e7bd187d3d80b79057d7a424fe98563e33560405160405180910390a1565b600660009054906101000a900473ffffffffffffffffffffffffffffffffffffffff1673ffffffffffffffffffffffffffffffffffffffff163373ffffffffffffffffffffffffffffffffffffffff161461082c576040517f08c379a000000000000000000000000000000000000000000000000000000000815260040161082390610e6e565b60405180910390fd5b600660149054906101000a900460ff1661087b576040517f08c379a000000000000000000000000000000000000000000000000000000000815260040161087290610e4e565b60405180910390fd5b6000800160405161088c9190610d7f565b60405180910390208280519060200120141561092e5780600060010160008282829054906101000a900460ff166108c39190610f80565b92506101000a81548160ff021916908360ff1602179055507fbdc8a11217b778402ef010d4e70703d74657784bd874883a44fe68833749b4a660008001600060010160009054906101000a900460ff16604051610921929190610e1e565b60405180910390a1610a1f565b60036000016040516109409190610d7f565b6040518091039020828051906020012014156109e35780600360010160008282829054906101000a900460ff166109779190610f80565b92506101000a81548160ff021916908360ff1602179055507fbdc8a11217b778402ef010d4e70703d74657784bd874883a44fe68833749b4a66003600001600360010160009054906101000a900460ff166040516109d6929190610e1e565b60405180910390a1610a1e565b6040517f08c379a0000000000000000000000000000000000000000000000000000000008152600401610a1590610e8e565b60405180910390fd5b5b5050565b6000610a36610a3184610eff565b610ece565b905082815260208101848484011115610a4e57600080fd5b610a59848285611002565b509392505050565b600082601f830112610a7257600080fd5b8135610a82848260208601610a23565b91505092915050565b600081359050610a9a81611114565b92915050565b60008060408385031215610ab357600080fd5b600083013567ffffffffffffffff811115610acd57600080fd5b610ad985828601610a61565b9250506020610aea85828601610a8b565b9150509250929050565b610afd81610fb7565b82525050565b610b0c81610fc9565b82525050565b60008154610b1f81611044565b610b298186610f64565b94506001821660008114610b445760018114610b5557610b88565b60ff19831686528186019350610b88565b610b5e85610f2f565b60005b83811015610b8057815481890152600182019150602081019050610b61565b838801955050505b50505092915050565b6000610b9c82610f59565b610ba68185610f6f565b9350610bb6818560208601611011565b610bbf81611103565b840191505092915050565b60008154610bd781611044565b610be18186610f6f565b94506001821660008114610bfc5760018114610c0e57610c41565b60ff1983168652602086019350610c41565b610c1785610f44565b60005b83811015610c3957815481890152600182019150602081019050610c1a565b808801955050505b50505092915050565b6000610c57601783610f6f565b91507f47616d65206973206e6f742073746172746564207965740000000000000000006000830152602082019050919050565b6000610c97602683610f6f565b91507f4f6e6c7920746865206f776e65722063616e20706572666f726d20746869732060008301527f616374696f6e00000000000000000000000000000000000000000000000000006020830152604082019050919050565b6000610cfd601183610f6f565b91507f496e76616c6964207465616d206e616d650000000000000000000000000000006000830152602082019050919050565b6000610d3d601783610f6f565b91507f47616d6520697320616c726561647920737461727465640000000000000000006000830152602082019050919050565b610d7981610ff5565b82525050565b6000610d8b8284610b12565b915081905092915050565b6000602082019050610dab6000830184610af4565b92915050565b6000602082019050610dc66000830184610b03565b92915050565b60006020820190508181036000830152610de68184610b91565b905092915050565b60006040820190508181036000830152610e088185610b91565b9050610e176020830184610d70565b9392505050565b60006040820190508181036000830152610e388185610bca565b9050610e476020830184610d70565b9392505050565b60006020820190508181036000830152610e6781610c4a565b9050919050565b60006020820190508181036000830152610e8781610c8a565b9050919050565b60006020820190508181036000830152610ea781610cf0565b9050919050565b60006020820190508181036000830152610ec781610d30565b9050919050565b6000604051905081810181811067ffffffffffffffff82111715610ef557610ef46110d4565b5b8060405250919050565b600067ffffffffffffffff821115610f1a57610f196110d4565b5b601f19601f8301169050602081019050919050565b60008190508160005260206000209050919050565b60008190508160005260206000209050919050565b600081519050919050565b600081905092915050565b600082825260208201905092915050565b6000610f8b82610ff5565b9150610f9683610ff5565b92508260ff03821115610fac57610fab611076565b5b828201905092915050565b6000610fc282610fd5565b9050919050565b60008115159050919050565b600073ffffffffffffffffffffffffffffffffffffffff82169050919050565b600060ff82169050919050565b82818337600083830152505050565b60005b8381101561102f578082015181840152602081019050611014565b8381111561103e576000848401525b50505050565b6000600282049050600182168061105c57607f821691505b602082108114156110705761106f6110a5565b5b50919050565b7f4e487b7100000000000000000000000000000000000000000000000000000000600052601160045260246000fd5b7f4e487b7100000000000000000000000000000000000000000000000000000000600052602260045260246000fd5b7f4e487b7100000000000000000000000000000000000000000000000000000000600052604160045260246000fd5b6000601f19601f8301169050919050565b61111d81610ff5565b811461112857600080fd5b5056fea2646970667358221220341504ac69b882b4c92f1ab8cc2ae788ef9ce93d719782a8455d8c7d0a4e390164736f6c63430008000033",
          "opcodes": "PUSH1 0x80 PUSH1 0x40 MSTORE CALLVALUE DUP1 ISZERO PUSH3 0x11 JUMPI PUSH1 0x0 DUP1 REVERT JUMPDEST POP PUSH1 0x40 MLOAD PUSH3 0x17BC CODESIZE SUB DUP1 PUSH3 0x17BC DUP4 CODECOPY DUP2 DUP2 ADD PUSH1 0x40 MSTORE DUP2 ADD SWAP1 PUSH3 0x37 SWAP2 SWAP1 PUSH3 0x478 JUMP JUMPDEST CALLER PUSH1 0x6 PUSH1 0x0 PUSH2 0x100 EXP DUP2 SLOAD DUP2 PUSH20 0xFFFFFFFFFFFFFFFFFFFFFFFFFFFFFFFFFFFFFFFF MUL NOT AND SWAP1 DUP4 PUSH20 0xFFFFFFFFFFFFFFFFFFFFFFFFFFFFFFFFFFFFFFFF AND MUL OR SWAP1 SSTORE POP PUSH1 0x40 MLOAD DUP1 PUSH1 0x60 ADD PUSH1 0x40 MSTORE DUP1 PUSH1 0x40 MLOAD DUP1 PUSH1 0x40 ADD PUSH1 0x40 MSTORE DUP1 PUSH1 0x6 DUP2 MSTORE PUSH1 0x20 ADD PUSH32 0x5465616D20410000000000000000000000000000000000000000000000000000 DUP2 MSTORE POP DUP2 MSTORE PUSH1 0x20 ADD PUSH1 0x0 PUSH1 0xFF AND DUP2 MSTORE PUSH1 0x20 ADD DUP4 DUP2 MSTORE POP PUSH1 0x0 DUP1 DUP3 ADD MLOAD DUP2 PUSH1 0x0 ADD SWAP1 DUP1 MLOAD SWAP1 PUSH1 0x20 ADD SWAP1 PUSH3 0xEB SWAP3 SWAP2 SWAP1 PUSH3 0x1EF JUMP JUMPDEST POP PUSH1 0x20 DUP3 ADD MLOAD DUP2 PUSH1 0x1 ADD PUSH1 0x0 PUSH2 0x100 EXP DUP2 SLOAD DUP2 PUSH1 0xFF MUL NOT AND SWAP1 DUP4 PUSH1 0xFF AND MUL OR SWAP1 SSTORE POP PUSH1 0x40 DUP3 ADD MLOAD DUP2 PUSH1 0x2 ADD SWAP1 DUP1 MLOAD SWAP1 PUSH1 0x20 ADD SWAP1 PUSH3 0x12B SWAP3 SWAP2 SWAP1 PUSH3 0x280 JUMP JUMPDEST POP SWAP1 POP POP PUSH1 0x40 MLOAD DUP1 PUSH1 0x60 ADD PUSH1 0x40 MSTORE DUP1 PUSH1 0x40 MLOAD DUP1 PUSH1 0x40 ADD PUSH1 0x40 MSTORE DUP1 PUSH1 0x6 DUP2 MSTORE PUSH1 0x20 ADD PUSH32 0x5465616D20420000000000000000000000000000000000000000000000000000 DUP2 MSTORE POP DUP2 MSTORE PUSH1 0x20 ADD PUSH1 0x0 PUSH1 0xFF AND DUP2 MSTORE PUSH1 0x20 ADD DUP3 DUP2 MSTORE POP PUSH1 0x3 PUSH1 0x0 DUP3 ADD MLOAD DUP2 PUSH1 0x0 ADD SWAP1 DUP1 MLOAD SWAP1 PUSH1 0x20 ADD SWAP1 PUSH3 0x1A3 SWAP3 SWAP2 SWAP1 PUSH3 0x1EF JUMP JUMPDEST POP PUSH1 0x20 DUP3 ADD MLOAD DUP2 PUSH1 0x1 ADD PUSH1 0x0 PUSH2 0x100 EXP DUP2 SLOAD DUP2 PUSH1 0xFF MUL NOT AND SWAP1 DUP4 PUSH1 0xFF AND MUL OR SWAP1 SSTORE POP PUSH1 0x40 DUP3 ADD MLOAD DUP2 PUSH1 0x2 ADD SWAP1 DUP1 MLOAD SWAP1 PUSH1 0x20 ADD SWAP1 PUSH3 0x1E3 SWAP3 SWAP2 SWAP1 PUSH3 0x280 JUMP JUMPDEST POP SWAP1 POP POP POP POP PUSH3 0x64B JUMP JUMPDEST DUP3 DUP1 SLOAD PUSH3 0x1FD SWAP1 PUSH3 0x5B7 JUMP JUMPDEST SWAP1 PUSH1 0x0 MSTORE PUSH1 0x20 PUSH1 0x0 KECCAK256 SWAP1 PUSH1 0x1F ADD PUSH1 0x20 SWAP1 DIV DUP2 ADD SWAP3 DUP3 PUSH3 0x221 JUMPI PUSH1 0x0 DUP6 SSTORE PUSH3 0x26D JUMP JUMPDEST DUP3 PUSH1 0x1F LT PUSH3 0x23C JUMPI DUP1 MLOAD PUSH1 0xFF NOT AND DUP4 DUP1 ADD OR DUP6 SSTORE PUSH3 0x26D JUMP JUMPDEST DUP3 DUP1 ADD PUSH1 0x1 ADD DUP6 SSTORE DUP3 ISZERO PUSH3 0x26D JUMPI SWAP2 DUP3 ADD JUMPDEST DUP3 DUP2 GT ISZERO PUSH3 0x26C JUMPI DUP3 MLOAD DUP3 SSTORE SWAP2 PUSH1 0x20 ADD SWAP2 SWAP1 PUSH1 0x1 ADD SWAP1 PUSH3 0x24F JUMP JUMPDEST JUMPDEST POP SWAP1 POP PUSH3 0x27C SWAP2 SWAP1 PUSH3 0x2E7 JUMP JUMPDEST POP SWAP1 JUMP JUMPDEST DUP3 DUP1 SLOAD DUP3 DUP3 SSTORE SWAP1 PUSH1 0x0 MSTORE PUSH1 0x20 PUSH1 0x0 KECCAK256 SWAP1 DUP2 ADD SWAP3 DUP3 ISZERO PUSH3 0x2D4 JUMPI SWAP2 PUSH1 0x20 MUL DUP3 ADD JUMPDEST DUP3 DUP2 GT ISZERO PUSH3 0x2D3 JUMPI DUP3 MLOAD DUP3 SWAP1 DUP1 MLOAD SWAP1 PUSH1 0x20 ADD SWAP1 PUSH3 0x2C2 SWAP3 SWAP2 SWAP1 PUSH3 0x1EF JUMP JUMPDEST POP SWAP2 PUSH1 0x20 ADD SWAP2 SWAP1 PUSH1 0x1 ADD SWAP1 PUSH3 0x2A1 JUMP JUMPDEST JUMPDEST POP SWAP1 POP PUSH3 0x2E3 SWAP2 SWAP1 PUSH3 0x306 JUMP JUMPDEST POP SWAP1 JUMP JUMPDEST JUMPDEST DUP1 DUP3 GT ISZERO PUSH3 0x302 JUMPI PUSH1 0x0 DUP2 PUSH1 0x0 SWAP1 SSTORE POP PUSH1 0x1 ADD PUSH3 0x2E8 JUMP JUMPDEST POP SWAP1 JUMP JUMPDEST JUMPDEST DUP1 DUP3 GT ISZERO PUSH3 0x32A JUMPI PUSH1 0x0 DUP2 DUP2 PUSH3 0x320 SWAP2 SWAP1 PUSH3 0x32E JUMP JUMPDEST POP PUSH1 0x1 ADD PUSH3 0x307 JUMP JUMPDEST POP SWAP1 JUMP JUMPDEST POP DUP1 SLOAD PUSH3 0x33C SWAP1 PUSH3 0x5B7 JUMP JUMPDEST PUSH1 0x0 DUP3 SSTORE DUP1 PUSH1 0x1F LT PUSH3 0x350 JUMPI POP PUSH3 0x371 JUMP JUMPDEST PUSH1 0x1F ADD PUSH1 0x20 SWAP1 DIV SWAP1 PUSH1 0x0 MSTORE PUSH1 0x20 PUSH1 0x0 KECCAK256 SWAP1 DUP2 ADD SWAP1 PUSH3 0x370 SWAP2 SWAP1 PUSH3 0x2E7 JUMP JUMPDEST JUMPDEST POP JUMP JUMPDEST PUSH1 0x0 PUSH3 0x38B PUSH3 0x385 DUP5 PUSH3 0x51F JUMP JUMPDEST PUSH3 0x4EB JUMP JUMPDEST SWAP1 POP DUP1 DUP4 DUP3 MSTORE PUSH1 0x20 DUP3 ADD SWAP1 POP DUP3 PUSH1 0x0 JUMPDEST DUP6 DUP2 LT ISZERO PUSH3 0x3CF JUMPI DUP2 MLOAD DUP6 ADD PUSH3 0x3B4 DUP9 DUP3 PUSH3 0x44B JUMP JUMPDEST DUP5 MSTORE PUSH1 0x20 DUP5 ADD SWAP4 POP PUSH1 0x20 DUP4 ADD SWAP3 POP POP PUSH1 0x1 DUP2 ADD SWAP1 POP PUSH3 0x39B JUMP JUMPDEST POP POP POP SWAP4 SWAP3 POP POP POP JUMP JUMPDEST PUSH1 0x0 PUSH3 0x3F0 PUSH3 0x3EA DUP5 PUSH3 0x54E JUMP JUMPDEST PUSH3 0x4EB JUMP JUMPDEST SWAP1 POP DUP3 DUP2 MSTORE PUSH1 0x20 DUP2 ADD DUP5 DUP5 DUP5 ADD GT ISZERO PUSH3 0x409 JUMPI PUSH1 0x0 DUP1 REVERT JUMPDEST PUSH3 0x416 DUP5 DUP3 DUP6 PUSH3 0x581 JUMP JUMPDEST POP SWAP4 SWAP3 POP POP POP JUMP JUMPDEST PUSH1 0x0 DUP3 PUSH1 0x1F DUP4 ADD SLT PUSH3 0x430 JUMPI PUSH1 0x0 DUP1 REVERT JUMPDEST DUP2 MLOAD PUSH3 0x442 DUP5 DUP3 PUSH1 0x20 DUP7 ADD PUSH3 0x374 JUMP JUMPDEST SWAP2 POP POP SWAP3 SWAP2 POP POP JUMP JUMPDEST PUSH1 0x0 DUP3 PUSH1 0x1F DUP4 ADD SLT PUSH3 0x45D JUMPI PUSH1 0x0 DUP1 REVERT JUMPDEST DUP2 MLOAD PUSH3 0x46F DUP5 DUP3 PUSH1 0x20 DUP7 ADD PUSH3 0x3D9 JUMP JUMPDEST SWAP2 POP POP SWAP3 SWAP2 POP POP JUMP JUMPDEST PUSH1 0x0 DUP1 PUSH1 0x40 DUP4 DUP6 SUB SLT ISZERO PUSH3 0x48C JUMPI PUSH1 0x0 DUP1 REVERT JUMPDEST PUSH1 0x0 DUP4 ADD MLOAD PUSH8 0xFFFFFFFFFFFFFFFF DUP2 GT ISZERO PUSH3 0x4A7 JUMPI PUSH1 0x0 DUP1 REVERT JUMPDEST PUSH3 0x4B5 DUP6 DUP3 DUP7 ADD PUSH3 0x41E JUMP JUMPDEST SWAP3 POP POP PUSH1 0x20 DUP4 ADD MLOAD PUSH8 0xFFFFFFFFFFFFFFFF DUP2 GT ISZERO PUSH3 0x4D3 JUMPI PUSH1 0x0 DUP1 REVERT JUMPDEST PUSH3 0x4E1 DUP6 DUP3 DUP7 ADD PUSH3 0x41E JUMP JUMPDEST SWAP2 POP POP SWAP3 POP SWAP3 SWAP1 POP JUMP JUMPDEST PUSH1 0x0 PUSH1 0x40 MLOAD SWAP1 POP DUP2 DUP2 ADD DUP2 DUP2 LT PUSH8 0xFFFFFFFFFFFFFFFF DUP3 GT OR ISZERO PUSH3 0x515 JUMPI PUSH3 0x514 PUSH3 0x61C JUMP JUMPDEST JUMPDEST DUP1 PUSH1 0x40 MSTORE POP SWAP2 SWAP1 POP JUMP JUMPDEST PUSH1 0x0 PUSH8 0xFFFFFFFFFFFFFFFF DUP3 GT ISZERO PUSH3 0x53D JUMPI PUSH3 0x53C PUSH3 0x61C JUMP JUMPDEST JUMPDEST PUSH1 0x20 DUP3 MUL SWAP1 POP PUSH1 0x20 DUP2 ADD SWAP1 POP SWAP2 SWAP1 POP JUMP JUMPDEST PUSH1 0x0 PUSH8 0xFFFFFFFFFFFFFFFF DUP3 GT ISZERO PUSH3 0x56C JUMPI PUSH3 0x56B PUSH3 0x61C JUMP JUMPDEST JUMPDEST PUSH1 0x1F NOT PUSH1 0x1F DUP4 ADD AND SWAP1 POP PUSH1 0x20 DUP2 ADD SWAP1 POP SWAP2 SWAP1 POP JUMP JUMPDEST PUSH1 0x0 JUMPDEST DUP4 DUP2 LT ISZERO PUSH3 0x5A1 JUMPI DUP1 DUP3 ADD MLOAD DUP2 DUP5 ADD MSTORE PUSH1 0x20 DUP2 ADD SWAP1 POP PUSH3 0x584 JUMP JUMPDEST DUP4 DUP2 GT ISZERO PUSH3 0x5B1 JUMPI PUSH1 0x0 DUP5 DUP5 ADD MSTORE JUMPDEST POP POP POP POP JUMP JUMPDEST PUSH1 0x0 PUSH1 0x2 DUP3 DIV SWAP1 POP PUSH1 0x1 DUP3 AND DUP1 PUSH3 0x5D0 JUMPI PUSH1 0x7F DUP3 AND SWAP2 POP JUMPDEST PUSH1 0x20 DUP3 LT DUP2 EQ ISZERO PUSH3 0x5E7 JUMPI PUSH3 0x5E6 PUSH3 0x5ED JUMP JUMPDEST JUMPDEST POP SWAP2 SWAP1 POP JUMP JUMPDEST PUSH32 0x4E487B7100000000000000000000000000000000000000000000000000000000 PUSH1 0x0 MSTORE PUSH1 0x22 PUSH1 0x4 MSTORE PUSH1 0x24 PUSH1 0x0 REVERT JUMPDEST PUSH32 0x4E487B7100000000000000000000000000000000000000000000000000000000 PUSH1 0x0 MSTORE PUSH1 0x41 PUSH1 0x4 MSTORE PUSH1 0x24 PUSH1 0x0 REVERT JUMPDEST PUSH2 0x1161 DUP1 PUSH3 0x65B PUSH1 0x0 CODECOPY PUSH1 0x0 RETURN INVALID PUSH1 0x80 PUSH1 0x40 MSTORE CALLVALUE DUP1 ISZERO PUSH2 0x10 JUMPI PUSH1 0x0 DUP1 REVERT JUMPDEST POP PUSH1 0x4 CALLDATASIZE LT PUSH2 0x88 JUMPI PUSH1 0x0 CALLDATALOAD PUSH1 0xE0 SHR DUP1 PUSH4 0x8AA7C3E8 GT PUSH2 0x5B JUMPI DUP1 PUSH4 0x8AA7C3E8 EQ PUSH2 0xF2 JUMPI DUP1 PUSH4 0x8DA5CB5B EQ PUSH2 0x111 JUMPI DUP1 PUSH4 0xD65AB5F2 EQ PUSH2 0x12F JUMPI DUP1 PUSH4 0xE4A753DD EQ PUSH2 0x139 JUMPI PUSH2 0x88 JUMP JUMPDEST DUP1 PUSH4 0x14034BD2 EQ PUSH2 0x8D JUMPI DUP1 PUSH4 0x5E123CE4 EQ PUSH2 0xAB JUMPI DUP1 PUSH4 0x6CBC2DED EQ PUSH2 0xC9 JUMPI DUP1 PUSH4 0x826DF9AA EQ PUSH2 0xD3 JUMPI JUMPDEST PUSH1 0x0 DUP1 REVERT JUMPDEST PUSH2 0x95 PUSH2 0x155 JUMP JUMPDEST PUSH1 0x40 MLOAD PUSH2 0xA2 SWAP2 SWAP1 PUSH2 0xDCC JUMP JUMPDEST PUSH1 0x40 MLOAD DUP1 SWAP2 SUB SWAP1 RETURN JUMPDEST PUSH2 0xB3 PUSH2 0x36F JUMP JUMPDEST PUSH1 0x40 MLOAD PUSH2 0xC0 SWAP2 SWAP1 PUSH2 0xDB1 JUMP JUMPDEST PUSH1 0x40 MLOAD DUP1 SWAP2 SUB SWAP1 RETURN JUMPDEST PUSH2 0xD1 PUSH2 0x382 JUMP JUMPDEST STOP JUMPDEST PUSH2 0xDB PUSH2 0x4C2 JUMP JUMPDEST PUSH1 0x40 MLOAD PUSH2 0xE9 SWAP3 SWAP2 SWAP1 PUSH2 0xDEE JUMP JUMPDEST PUSH1 0x40 MLOAD DUP1 SWAP2 SUB SWAP1 RETURN JUMPDEST PUSH2 0xFA PUSH2 0x569 JUMP JUMPDEST PUSH1 0x40 MLOAD PUSH2 0x108 SWAP3 SWAP2 SWAP1 PUSH2 0xDEE JUMP JUMPDEST PUSH1 0x40 MLOAD DUP1 SWAP2 SUB SWAP1 RETURN JUMPDEST PUSH2 0x119 PUSH2 0x610 JUMP JUMPDEST PUSH1 0x40 MLOAD PUSH2 0x126 SWAP2 SWAP1 PUSH2 0xD96 JUMP JUMPDEST PUSH1 0x40 MLOAD DUP1 SWAP2 SUB SWAP1 RETURN JUMPDEST PUSH2 0x137 PUSH2 0x636 JUMP JUMPDEST STOP JUMPDEST PUSH2 0x153 PUSH1 0x4 DUP1 CALLDATASIZE SUB DUP2 ADD SWAP1 PUSH2 0x14E SWAP2 SWAP1 PUSH2 0xAA0 JUMP JUMPDEST PUSH2 0x79C JUMP JUMPDEST STOP JUMPDEST PUSH1 0x60 PUSH1 0x6 PUSH1 0x14 SWAP1 SLOAD SWAP1 PUSH2 0x100 EXP SWAP1 DIV PUSH1 0xFF AND PUSH2 0x1A6 JUMPI PUSH1 0x40 MLOAD PUSH32 0x8C379A000000000000000000000000000000000000000000000000000000000 DUP2 MSTORE PUSH1 0x4 ADD PUSH2 0x19D SWAP1 PUSH2 0xE4E JUMP JUMPDEST PUSH1 0x40 MLOAD DUP1 SWAP2 SUB SWAP1 REVERT JUMPDEST PUSH1 0x3 PUSH1 0x1 ADD PUSH1 0x0 SWAP1 SLOAD SWAP1 PUSH2 0x100 EXP SWAP1 DIV PUSH1 0xFF AND PUSH1 0xFF AND PUSH1 0x0 PUSH1 0x1 ADD PUSH1 0x0 SWAP1 SLOAD SWAP1 PUSH2 0x100 EXP SWAP1 DIV PUSH1 0xFF AND PUSH1 0xFF AND GT ISZERO PUSH2 0x26C JUMPI PUSH1 0x0 DUP1 ADD DUP1 SLOAD PUSH2 0x1E7 SWAP1 PUSH2 0x1044 JUMP JUMPDEST DUP1 PUSH1 0x1F ADD PUSH1 0x20 DUP1 SWAP2 DIV MUL PUSH1 0x20 ADD PUSH1 0x40 MLOAD SWAP1 DUP2 ADD PUSH1 0x40 MSTORE DUP1 SWAP3 SWAP2 SWAP1 DUP2 DUP2 MSTORE PUSH1 0x20 ADD DUP3 DUP1 SLOAD PUSH2 0x213 SWAP1 PUSH2 0x1044 JUMP JUMPDEST DUP1 ISZERO PUSH2 0x260 JUMPI DUP1 PUSH1 0x1F LT PUSH2 0x235 JUMPI PUSH2 0x100 DUP1 DUP4 SLOAD DIV MUL DUP4 MSTORE SWAP2 PUSH1 0x20 ADD SWAP2 PUSH2 0x260 JUMP JUMPDEST DUP3 ADD SWAP2 SWAP1 PUSH1 0x0 MSTORE PUSH1 0x20 PUSH1 0x0 KECCAK256 SWAP1 JUMPDEST DUP2 SLOAD DUP2 MSTORE SWAP1 PUSH1 0x1 ADD SWAP1 PUSH1 0x20 ADD DUP1 DUP4 GT PUSH2 0x243 JUMPI DUP3 SWAP1 SUB PUSH1 0x1F AND DUP3 ADD SWAP2 JUMPDEST POP POP POP POP POP SWAP1 POP PUSH2 0x36C JUMP JUMPDEST PUSH1 0x0 PUSH1 0x1 ADD PUSH1 0x0 SWAP1 SLOAD SWAP1 PUSH2 0x100 EXP SWAP1 DIV PUSH1 0xFF AND PUSH1 0xFF AND PUSH1 0x3 PUSH1 0x1 ADD PUSH1 0x0 SWAP1 SLOAD SWAP1 PUSH2 0x100 EXP SWAP1 DIV PUSH1 0xFF AND PUSH1 0xFF AND GT ISZERO PUSH2 0x333 JUMPI PUSH1 0x3 PUSH1 0x0 ADD DUP1 SLOAD PUSH2 0x2AE SWAP1 PUSH2 0x1044 JUMP JUMPDEST DUP1 PUSH1 0x1F ADD PUSH1 0x20 DUP1 SWAP2 DIV MUL PUSH1 0x20 ADD PUSH1 0x40 MLOAD SWAP1 DUP2 ADD PUSH1 0x40 MSTORE DUP1 SWAP3 SWAP2 SWAP1 DUP2 DUP2 MSTORE PUSH1 0x20 ADD DUP3 DUP1 SLOAD PUSH2 0x2DA SWAP1 PUSH2 0x1044 JUMP JUMPDEST DUP1 ISZERO PUSH2 0x327 JUMPI DUP1 PUSH1 0x1F LT PUSH2 0x2FC JUMPI PUSH2 0x100 DUP1 DUP4 SLOAD DIV MUL DUP4 MSTORE SWAP2 PUSH1 0x20 ADD SWAP2 PUSH2 0x327 JUMP JUMPDEST DUP3 ADD SWAP2 SWAP1 PUSH1 0x0 MSTORE PUSH1 0x20 PUSH1 0x0 KECCAK256 SWAP1 JUMPDEST DUP2 SLOAD DUP2 MSTORE SWAP1 PUSH1 0x1 ADD SWAP1 PUSH1 0x20 ADD DUP1 DUP4 GT PUSH2 0x30A JUMPI DUP3 SWAP1 SUB PUSH1 0x1F AND DUP3 ADD SWAP2 JUMPDEST POP POP POP POP POP SWAP1 POP PUSH2 0x36C JUMP JUMPDEST PUSH1 0x40 MLOAD DUP1 PUSH1 0x40 ADD PUSH1 0x40 MSTORE DUP1 PUSH1 0xC DUP2 MSTORE PUSH1 0x20 ADD PUSH32 0x4974277320612064726177210000000000000000000000000000000000000000 DUP2 MSTORE POP SWAP1 POP JUMPDEST SWAP1 JUMP JUMPDEST PUSH1 0x6 PUSH1 0x14 SWAP1 SLOAD SWAP1 PUSH2 0x100 EXP SWAP1 DIV PUSH1 0xFF AND DUP2 JUMP JUMPDEST PUSH1 0x6 PUSH1 0x0 SWAP1 SLOAD SWAP1 PUSH2 0x100 EXP SWAP1 DIV PUSH20 0xFFFFFFFFFFFFFFFFFFFFFFFFFFFFFFFFFFFFFFFF AND PUSH20 0xFFFFFFFFFFFFFFFFFFFFFFFFFFFFFFFFFFFFFFFF AND CALLER PUSH20 0xFFFFFFFFFFFFFFFFFFFFFFFFFFFFFFFFFFFFFFFF AND EQ PUSH2 0x412 JUMPI PUSH1 0x40 MLOAD PUSH32 0x8C379A000000000000000000000000000000000000000000000000000000000 DUP2 MSTORE PUSH1 0x4 ADD PUSH2 0x409 SWAP1 PUSH2 0xE6E JUMP JUMPDEST PUSH1 0x40 MLOAD DUP1 SWAP2 SUB SWAP1 REVERT JUMPDEST PUSH1 0x6 PUSH1 0x14 SWAP1 SLOAD SWAP1 PUSH2 0x100 EXP SWAP1 DIV PUSH1 0xFF AND PUSH2 0x461 JUMPI PUSH1 0x40 MLOAD PUSH32 0x8C379A000000000000000000000000000000000000000000000000000000000 DUP2 MSTORE PUSH1 0x4 ADD PUSH2 0x458 SWAP1 PUSH2 0xE4E JUMP JUMPDEST PUSH1 0x40 MLOAD DUP1 SWAP2 SUB SWAP1 REVERT JUMPDEST PUSH1 0x0 PUSH2 0x46B PUSH2 0x155 JUMP JUMPDEST SWAP1 POP PUSH32 0x56E3895424A85EF26C4C78D9988DEA28D97C77C140B919289906403E8017170 DUP2 PUSH1 0x40 MLOAD PUSH2 0x49C SWAP2 SWAP1 PUSH2 0xDCC JUMP JUMPDEST PUSH1 0x40 MLOAD DUP1 SWAP2 SUB SWAP1 LOG1 PUSH1 0x0 PUSH1 0x6 PUSH1 0x14 PUSH2 0x100 EXP DUP2 SLOAD DUP2 PUSH1 0xFF MUL NOT AND SWAP1 DUP4 ISZERO ISZERO MUL OR SWAP1 SSTORE POP POP JUMP JUMPDEST PUSH1 0x0 DUP1 PUSH1 0x0 ADD DUP1 SLOAD PUSH2 0x4D3 SWAP1 PUSH2 0x1044 JUMP JUMPDEST DUP1 PUSH1 0x1F ADD PUSH1 0x20 DUP1 SWAP2 DIV MUL PUSH1 0x20 ADD PUSH1 0x40 MLOAD SWAP1 DUP2 ADD PUSH1 0x40 MSTORE DUP1 SWAP3 SWAP2 SWAP1 DUP2 DUP2 MSTORE PUSH1 0x20 ADD DUP3 DUP1 SLOAD PUSH2 0x4FF SWAP1 PUSH2 0x1044 JUMP JUMPDEST DUP1 ISZERO PUSH2 0x54C JUMPI DUP1 PUSH1 0x1F LT PUSH2 0x521 JUMPI PUSH2 0x100 DUP1 DUP4 SLOAD DIV MUL DUP4 MSTORE SWAP2 PUSH1 0x20 ADD SWAP2 PUSH2 0x54C JUMP JUMPDEST DUP3 ADD SWAP2 SWAP1 PUSH1 0x0 MSTORE PUSH1 0x20 PUSH1 0x0 KECCAK256 SWAP1 JUMPDEST DUP2 SLOAD DUP2 MSTORE SWAP1 PUSH1 0x1 ADD SWAP1 PUSH1 0x20 ADD DUP1 DUP4 GT PUSH2 0x52F JUMPI DUP3 SWAP1 SUB PUSH1 0x1F AND DUP3 ADD SWAP2 JUMPDEST POP POP POP POP POP SWAP1 DUP1 PUSH1 0x1 ADD PUSH1 0x0 SWAP1 SLOAD SWAP1 PUSH2 0x100 EXP SWAP1 DIV PUSH1 0xFF AND SWAP1 POP DUP3 JUMP JUMPDEST PUSH1 0x3 DUP1 PUSH1 0x0 ADD DUP1 SLOAD PUSH2 0x57A SWAP1 PUSH2 0x1044 JUMP JUMPDEST DUP1 PUSH1 0x1F ADD PUSH1 0x20 DUP1 SWAP2 DIV MUL PUSH1 0x20 ADD PUSH1 0x40 MLOAD SWAP1 DUP2 ADD PUSH1 0x40 MSTORE DUP1 SWAP3 SWAP2 SWAP1 DUP2 DUP2 MSTORE PUSH1 0x20 ADD DUP3 DUP1 SLOAD PUSH2 0x5A6 SWAP1 PUSH2 0x1044 JUMP JUMPDEST DUP1 ISZERO PUSH2 0x5F3 JUMPI DUP1 PUSH1 0x1F LT PUSH2 0x5C8 JUMPI PUSH2 0x100 DUP1 DUP4 SLOAD DIV MUL DUP4 MSTORE SWAP2 PUSH1 0x20 ADD SWAP2 PUSH2 0x5F3 JUMP JUMPDEST DUP3 ADD SWAP2 SWAP1 PUSH1 0x0 MSTORE PUSH1 0x20 PUSH1 0x0 KECCAK256 SWAP1 JUMPDEST DUP2 SLOAD DUP2 MSTORE SWAP1 PUSH1 0x1 ADD SWAP1 PUSH1 0x20 ADD DUP1 DUP4 GT PUSH2 0x5D6 JUMPI DUP3 SWAP1 SUB PUSH1 0x1F AND DUP3 ADD SWAP2 JUMPDEST POP POP POP POP POP SWAP1 DUP1 PUSH1 0x1 ADD PUSH1 0x0 SWAP1 SLOAD SWAP1 PUSH2 0x100 EXP SWAP1 DIV PUSH1 0xFF AND SWAP1 POP DUP3 JUMP JUMPDEST PUSH1 0x6 PUSH1 0x0 SWAP1 SLOAD SWAP1 PUSH2 0x100 EXP SWAP1 DIV PUSH20 0xFFFFFFFFFFFFFFFFFFFFFFFFFFFFFFFFFFFFFFFF AND DUP2 JUMP JUMPDEST PUSH1 0x6 PUSH1 0x0 SWAP1 SLOAD SWAP1 PUSH2 0x100 EXP SWAP1 DIV PUSH20 0xFFFFFFFFFFFFFFFFFFFFFFFFFFFFFFFFFFFFFFFF AND PUSH20 0xFFFFFFFFFFFFFFFFFFFFFFFFFFFFFFFFFFFFFFFF AND CALLER PUSH20 0xFFFFFFFFFFFFFFFFFFFFFFFFFFFFFFFFFFFFFFFF AND EQ PUSH2 0x6C6 JUMPI PUSH1 0x40 MLOAD PUSH32 0x8C379A000000000000000000000000000000000000000000000000000000000 DUP2 MSTORE PUSH1 0x4 ADD PUSH2 0x6BD SWAP1 PUSH2 0xE6E JUMP JUMPDEST PUSH1 0x40 MLOAD DUP1 SWAP2 SUB SWAP1 REVERT JUMPDEST PUSH1 0x6 PUSH1 0x14 SWAP1 SLOAD SWAP1 PUSH2 0x100 EXP SWAP1 DIV PUSH1 0xFF AND ISZERO PUSH2 0x716 JUMPI PUSH1 0x40 MLOAD PUSH32 0x8C379A000000000000000000000000000000000000000000000000000000000 DUP2 MSTORE PUSH1 0x4 ADD PUSH2 0x70D SWAP1 PUSH2 0xEAE JUMP JUMPDEST PUSH1 0x40 MLOAD DUP1 SWAP2 SUB SWAP1 REVERT JUMPDEST PUSH1 0x0 DUP1 PUSH1 0x1 ADD PUSH1 0x0 PUSH2 0x100 EXP DUP2 SLOAD DUP2 PUSH1 0xFF MUL NOT AND SWAP1 DUP4 PUSH1 0xFF AND MUL OR SWAP1 SSTORE POP PUSH1 0x0 PUSH1 0x3 PUSH1 0x1 ADD PUSH1 0x0 PUSH2 0x100 EXP DUP2 SLOAD DUP2 PUSH1 0xFF MUL NOT AND SWAP1 DUP4 PUSH1 0xFF AND MUL OR SWAP1 SSTORE POP PUSH1 0x1 PUSH1 0x6 PUSH1 0x14 PUSH2 0x100 EXP DUP2 SLOAD DUP2 PUSH1 0xFF MUL NOT AND SWAP1 DUP4 ISZERO ISZERO MUL OR SWAP1 SSTORE POP PUSH32 0x762F260439BB4BE3EF6E4DC2786E2E7BD187D3D80B79057D7A424FE98563E335 PUSH1 0x40 MLOAD PUSH1 0x40 MLOAD DUP1 SWAP2 SUB SWAP1 LOG1 JUMP JUMPDEST PUSH1 0x6 PUSH1 0x0 SWAP1 SLOAD SWAP1 PUSH2 0x100 EXP SWAP1 DIV PUSH20 0xFFFFFFFFFFFFFFFFFFFFFFFFFFFFFFFFFFFFFFFF AND PUSH20 0xFFFFFFFFFFFFFFFFFFFFFFFFFFFFFFFFFFFFFFFF AND CALLER PUSH20 0xFFFFFFFFFFFFFFFFFFFFFFFFFFFFFFFFFFFFFFFF AND EQ PUSH2 0x82C JUMPI PUSH1 0x40 MLOAD PUSH32 0x8C379A000000000000000000000000000000000000000000000000000000000 DUP2 MSTORE PUSH1 0x4 ADD PUSH2 0x823 SWAP1 PUSH2 0xE6E JUMP JUMPDEST PUSH1 0x40 MLOAD DUP1 SWAP2 SUB SWAP1 REVERT JUMPDEST PUSH1 0x6 PUSH1 0x14 SWAP1 SLOAD SWAP1 PUSH2 0x100 EXP SWAP1 DIV PUSH1 0xFF AND PUSH2 0x87B JUMPI PUSH1 0x40 MLOAD PUSH32 0x8C379A000000000000000000000000000000000000000000000000000000000 DUP2 MSTORE PUSH1 0x4 ADD PUSH2 0x872 SWAP1 PUSH2 0xE4E JUMP JUMPDEST PUSH1 0x40 MLOAD DUP1 SWAP2 SUB SWAP1 REVERT JUMPDEST PUSH1 0x0 DUP1 ADD PUSH1 0x40 MLOAD PUSH2 0x88C SWAP2 SWAP1 PUSH2 0xD7F JUMP JUMPDEST PUSH1 0x40 MLOAD DUP1 SWAP2 SUB SWAP1 KECCAK256 DUP3 DUP1 MLOAD SWAP1 PUSH1 0x20 ADD KECCAK256 EQ ISZERO PUSH2 0x92E JUMPI DUP1 PUSH1 0x0 PUSH1 0x1 ADD PUSH1 0x0 DUP3 DUP3 DUP3 SWAP1 SLOAD SWAP1 PUSH2 0x100 EXP SWAP1 DIV PUSH1 0xFF AND PUSH2 0x8C3 SWAP2 SWAP1 PUSH2 0xF80 JUMP JUMPDEST SWAP3 POP PUSH2 0x100 EXP DUP2 SLOAD DUP2 PUSH1 0xFF MUL NOT AND SWAP1 DUP4 PUSH1 0xFF AND MUL OR SWAP1 SSTORE POP PUSH32 0xBDC8A11217B778402EF010D4E70703D74657784BD874883A44FE68833749B4A6 PUSH1 0x0 DUP1 ADD PUSH1 0x0 PUSH1 0x1 ADD PUSH1 0x0 SWAP1 SLOAD SWAP1 PUSH2 0x100 EXP SWAP1 DIV PUSH1 0xFF AND PUSH1 0x40 MLOAD PUSH2 0x921 SWAP3 SWAP2 SWAP1 PUSH2 0xE1E JUMP JUMPDEST PUSH1 0x40 MLOAD DUP1 SWAP2 SUB SWAP1 LOG1 PUSH2 0xA1F JUMP JUMPDEST PUSH1 0x3 PUSH1 0x0 ADD PUSH1 0x40 MLOAD PUSH2 0x940 SWAP2 SWAP1 PUSH2 0xD7F JUMP JUMPDEST PUSH1 0x40 MLOAD DUP1 SWAP2 SUB SWAP1 KECCAK256 DUP3 DUP1 MLOAD SWAP1 PUSH1 0x20 ADD KECCAK256 EQ ISZERO PUSH2 0x9E3 JUMPI DUP1 PUSH1 0x3 PUSH1 0x1 ADD PUSH1 0x0 DUP3 DUP3 DUP3 SWAP1 SLOAD SWAP1 PUSH2 0x100 EXP SWAP1 DIV PUSH1 0xFF AND PUSH2 0x977 SWAP2 SWAP1 PUSH2 0xF80 JUMP JUMPDEST SWAP3 POP PUSH2 0x100 EXP DUP2 SLOAD DUP2 PUSH1 0xFF MUL NOT AND SWAP1 DUP4 PUSH1 0xFF AND MUL OR SWAP1 SSTORE POP PUSH32 0xBDC8A11217B778402EF010D4E70703D74657784BD874883A44FE68833749B4A6 PUSH1 0x3 PUSH1 0x0 ADD PUSH1 0x3 PUSH1 0x1 ADD PUSH1 0x0 SWAP1 SLOAD SWAP1 PUSH2 0x100 EXP SWAP1 DIV PUSH1 0xFF AND PUSH1 0x40 MLOAD PUSH2 0x9D6 SWAP3 SWAP2 SWAP1 PUSH2 0xE1E JUMP JUMPDEST PUSH1 0x40 MLOAD DUP1 SWAP2 SUB SWAP1 LOG1 PUSH2 0xA1E JUMP JUMPDEST PUSH1 0x40 MLOAD PUSH32 0x8C379A000000000000000000000000000000000000000000000000000000000 DUP2 MSTORE PUSH1 0x4 ADD PUSH2 0xA15 SWAP1 PUSH2 0xE8E JUMP JUMPDEST PUSH1 0x40 MLOAD DUP1 SWAP2 SUB SWAP1 REVERT JUMPDEST JUMPDEST POP POP JUMP JUMPDEST PUSH1 0x0 PUSH2 0xA36 PUSH2 0xA31 DUP5 PUSH2 0xEFF JUMP JUMPDEST PUSH2 0xECE JUMP JUMPDEST SWAP1 POP DUP3 DUP2 MSTORE PUSH1 0x20 DUP2 ADD DUP5 DUP5 DUP5 ADD GT ISZERO PUSH2 0xA4E JUMPI PUSH1 0x0 DUP1 REVERT JUMPDEST PUSH2 0xA59 DUP5 DUP3 DUP6 PUSH2 0x1002 JUMP JUMPDEST POP SWAP4 SWAP3 POP POP POP JUMP JUMPDEST PUSH1 0x0 DUP3 PUSH1 0x1F DUP4 ADD SLT PUSH2 0xA72 JUMPI PUSH1 0x0 DUP1 REVERT JUMPDEST DUP2 CALLDATALOAD PUSH2 0xA82 DUP5 DUP3 PUSH1 0x20 DUP7 ADD PUSH2 0xA23 JUMP JUMPDEST SWAP2 POP POP SWAP3 SWAP2 POP POP JUMP JUMPDEST PUSH1 0x0 DUP2 CALLDATALOAD SWAP1 POP PUSH2 0xA9A DUP2 PUSH2 0x1114 JUMP JUMPDEST SWAP3 SWAP2 POP POP JUMP JUMPDEST PUSH1 0x0 DUP1 PUSH1 0x40 DUP4 DUP6 SUB SLT ISZERO PUSH2 0xAB3 JUMPI PUSH1 0x0 DUP1 REVERT JUMPDEST PUSH1 0x0 DUP4 ADD CALLDATALOAD PUSH8 0xFFFFFFFFFFFFFFFF DUP2 GT ISZERO PUSH2 0xACD JUMPI PUSH1 0x0 DUP1 REVERT JUMPDEST PUSH2 0xAD9 DUP6 DUP3 DUP7 ADD PUSH2 0xA61 JUMP JUMPDEST SWAP3 POP POP PUSH1 0x20 PUSH2 0xAEA DUP6 DUP3 DUP7 ADD PUSH2 0xA8B JUMP JUMPDEST SWAP2 POP POP SWAP3 POP SWAP3 SWAP1 POP JUMP JUMPDEST PUSH2 0xAFD DUP2 PUSH2 0xFB7 JUMP JUMPDEST DUP3 MSTORE POP POP JUMP JUMPDEST PUSH2 0xB0C DUP2 PUSH2 0xFC9 JUMP JUMPDEST DUP3 MSTORE POP POP JUMP JUMPDEST PUSH1 0x0 DUP2 SLOAD PUSH2 0xB1F DUP2 PUSH2 0x1044 JUMP JUMPDEST PUSH2 0xB29 DUP2 DUP7 PUSH2 0xF64 JUMP JUMPDEST SWAP5 POP PUSH1 0x1 DUP3 AND PUSH1 0x0 DUP2 EQ PUSH2 0xB44 JUMPI PUSH1 0x1 DUP2 EQ PUSH2 0xB55 JUMPI PUSH2 0xB88 JUMP JUMPDEST PUSH1 0xFF NOT DUP4 AND DUP7 MSTORE DUP2 DUP7 ADD SWAP4 POP PUSH2 0xB88 JUMP JUMPDEST PUSH2 0xB5E DUP6 PUSH2 0xF2F JUMP JUMPDEST PUSH1 0x0 JUMPDEST DUP4 DUP2 LT ISZERO PUSH2 0xB80 JUMPI DUP2 SLOAD DUP2 DUP10 ADD MSTORE PUSH1 0x1 DUP3 ADD SWAP2 POP PUSH1 0x20 DUP2 ADD SWAP1 POP PUSH2 0xB61 JUMP JUMPDEST DUP4 DUP9 ADD SWAP6 POP POP POP JUMPDEST POP POP POP SWAP3 SWAP2 POP POP JUMP JUMPDEST PUSH1 0x0 PUSH2 0xB9C DUP3 PUSH2 0xF59 JUMP JUMPDEST PUSH2 0xBA6 DUP2 DUP6 PUSH2 0xF6F JUMP JUMPDEST SWAP4 POP PUSH2 0xBB6 DUP2 DUP6 PUSH1 0x20 DUP7 ADD PUSH2 0x1011 JUMP JUMPDEST PUSH2 0xBBF DUP2 PUSH2 0x1103 JUMP JUMPDEST DUP5 ADD SWAP2 POP POP SWAP3 SWAP2 POP POP JUMP JUMPDEST PUSH1 0x0 DUP2 SLOAD PUSH2 0xBD7 DUP2 PUSH2 0x1044 JUMP JUMPDEST PUSH2 0xBE1 DUP2 DUP7 PUSH2 0xF6F JUMP JUMPDEST SWAP5 POP PUSH1 0x1 DUP3 AND PUSH1 0x0 DUP2 EQ PUSH2 0xBFC JUMPI PUSH1 0x1 DUP2 EQ PUSH2 0xC0E JUMPI PUSH2 0xC41 JUMP JUMPDEST PUSH1 0xFF NOT DUP4 AND DUP7 MSTORE PUSH1 0x20 DUP7 ADD SWAP4 POP PUSH2 0xC41 JUMP JUMPDEST PUSH2 0xC17 DUP6 PUSH2 0xF44 JUMP JUMPDEST PUSH1 0x0 JUMPDEST DUP4 DUP2 LT ISZERO PUSH2 0xC39 JUMPI DUP2 SLOAD DUP2 DUP10 ADD MSTORE PUSH1 0x1 DUP3 ADD SWAP2 POP PUSH1 0x20 DUP2 ADD SWAP1 POP PUSH2 0xC1A JUMP JUMPDEST DUP1 DUP9 ADD SWAP6 POP POP POP JUMPDEST POP POP POP SWAP3 SWAP2 POP POP JUMP JUMPDEST PUSH1 0x0 PUSH2 0xC57 PUSH1 0x17 DUP4 PUSH2 0xF6F JUMP JUMPDEST SWAP2 POP PUSH32 0x47616D65206973206E6F74207374617274656420796574000000000000000000 PUSH1 0x0 DUP4 ADD MSTORE PUSH1 0x20 DUP3 ADD SWAP1 POP SWAP2 SWAP1 POP JUMP JUMPDEST PUSH1 0x0 PUSH2 0xC97 PUSH1 0x26 DUP4 PUSH2 0xF6F JUMP JUMPDEST SWAP2 POP PUSH32 0x4F6E6C7920746865206F776E65722063616E20706572666F726D207468697320 PUSH1 0x0 DUP4 ADD MSTORE PUSH32 0x616374696F6E0000000000000000000000000000000000000000000000000000 PUSH1 0x20 DUP4 ADD MSTORE PUSH1 0x40 DUP3 ADD SWAP1 POP SWAP2 SWAP1 POP JUMP JUMPDEST PUSH1 0x0 PUSH2 0xCFD PUSH1 0x11 DUP4 PUSH2 0xF6F JUMP JUMPDEST SWAP2 POP PUSH32 0x496E76616C6964207465616D206E616D65000000000000000000000000000000 PUSH1 0x0 DUP4 ADD MSTORE PUSH1 0x20 DUP3 ADD SWAP1 POP SWAP2 SWAP1 POP JUMP JUMPDEST PUSH1 0x0 PUSH2 0xD3D PUSH1 0x17 DUP4 PUSH2 0xF6F JUMP JUMPDEST SWAP2 POP PUSH32 0x47616D6520697320616C72656164792073746172746564000000000000000000 PUSH1 0x0 DUP4 ADD MSTORE PUSH1 0x20 DUP3 ADD SWAP1 POP SWAP2 SWAP1 POP JUMP JUMPDEST PUSH2 0xD79 DUP2 PUSH2 0xFF5 JUMP JUMPDEST DUP3 MSTORE POP POP JUMP JUMPDEST PUSH1 0x0 PUSH2 0xD8B DUP3 DUP5 PUSH2 0xB12 JUMP JUMPDEST SWAP2 POP DUP2 SWAP1 POP SWAP3 SWAP2 POP POP JUMP JUMPDEST PUSH1 0x0 PUSH1 0x20 DUP3 ADD SWAP1 POP PUSH2 0xDAB PUSH1 0x0 DUP4 ADD DUP5 PUSH2 0xAF4 JUMP JUMPDEST SWAP3 SWAP2 POP POP JUMP JUMPDEST PUSH1 0x0 PUSH1 0x20 DUP3 ADD SWAP1 POP PUSH2 0xDC6 PUSH1 0x0 DUP4 ADD DUP5 PUSH2 0xB03 JUMP JUMPDEST SWAP3 SWAP2 POP POP JUMP JUMPDEST PUSH1 0x0 PUSH1 0x20 DUP3 ADD SWAP1 POP DUP2 DUP2 SUB PUSH1 0x0 DUP4 ADD MSTORE PUSH2 0xDE6 DUP2 DUP5 PUSH2 0xB91 JUMP JUMPDEST SWAP1 POP SWAP3 SWAP2 POP POP JUMP JUMPDEST PUSH1 0x0 PUSH1 0x40 DUP3 ADD SWAP1 POP DUP2 DUP2 SUB PUSH1 0x0 DUP4 ADD MSTORE PUSH2 0xE08 DUP2 DUP6 PUSH2 0xB91 JUMP JUMPDEST SWAP1 POP PUSH2 0xE17 PUSH1 0x20 DUP4 ADD DUP5 PUSH2 0xD70 JUMP JUMPDEST SWAP4 SWAP3 POP POP POP JUMP JUMPDEST PUSH1 0x0 PUSH1 0x40 DUP3 ADD SWAP1 POP DUP2 DUP2 SUB PUSH1 0x0 DUP4 ADD MSTORE PUSH2 0xE38 DUP2 DUP6 PUSH2 0xBCA JUMP JUMPDEST SWAP1 POP PUSH2 0xE47 PUSH1 0x20 DUP4 ADD DUP5 PUSH2 0xD70 JUMP JUMPDEST SWAP4 SWAP3 POP POP POP JUMP JUMPDEST PUSH1 0x0 PUSH1 0x20 DUP3 ADD SWAP1 POP DUP2 DUP2 SUB PUSH1 0x0 DUP4 ADD MSTORE PUSH2 0xE67 DUP2 PUSH2 0xC4A JUMP JUMPDEST SWAP1 POP SWAP2 SWAP1 POP JUMP JUMPDEST PUSH1 0x0 PUSH1 0x20 DUP3 ADD SWAP1 POP DUP2 DUP2 SUB PUSH1 0x0 DUP4 ADD MSTORE PUSH2 0xE87 DUP2 PUSH2 0xC8A JUMP JUMPDEST SWAP1 POP SWAP2 SWAP1 POP JUMP JUMPDEST PUSH1 0x0 PUSH1 0x20 DUP3 ADD SWAP1 POP DUP2 DUP2 SUB PUSH1 0x0 DUP4 ADD MSTORE PUSH2 0xEA7 DUP2 PUSH2 0xCF0 JUMP JUMPDEST SWAP1 POP SWAP2 SWAP1 POP JUMP JUMPDEST PUSH1 0x0 PUSH1 0x20 DUP3 ADD SWAP1 POP DUP2 DUP2 SUB PUSH1 0x0 DUP4 ADD MSTORE PUSH2 0xEC7 DUP2 PUSH2 0xD30 JUMP JUMPDEST SWAP1 POP SWAP2 SWAP1 POP JUMP JUMPDEST PUSH1 0x0 PUSH1 0x40 MLOAD SWAP1 POP DUP2 DUP2 ADD DUP2 DUP2 LT PUSH8 0xFFFFFFFFFFFFFFFF DUP3 GT OR ISZERO PUSH2 0xEF5 JUMPI PUSH2 0xEF4 PUSH2 0x10D4 JUMP JUMPDEST JUMPDEST DUP1 PUSH1 0x40 MSTORE POP SWAP2 SWAP1 POP JUMP JUMPDEST PUSH1 0x0 PUSH8 0xFFFFFFFFFFFFFFFF DUP3 GT ISZERO PUSH2 0xF1A JUMPI PUSH2 0xF19 PUSH2 0x10D4 JUMP JUMPDEST JUMPDEST PUSH1 0x1F NOT PUSH1 0x1F DUP4 ADD AND SWAP1 POP PUSH1 0x20 DUP2 ADD SWAP1 POP SWAP2 SWAP1 POP JUMP JUMPDEST PUSH1 0x0 DUP2 SWAP1 POP DUP2 PUSH1 0x0 MSTORE PUSH1 0x20 PUSH1 0x0 KECCAK256 SWAP1 POP SWAP2 SWAP1 POP JUMP JUMPDEST PUSH1 0x0 DUP2 SWAP1 POP DUP2 PUSH1 0x0 MSTORE PUSH1 0x20 PUSH1 0x0 KECCAK256 SWAP1 POP SWAP2 SWAP1 POP JUMP JUMPDEST PUSH1 0x0 DUP2 MLOAD SWAP1 POP SWAP2 SWAP1 POP JUMP JUMPDEST PUSH1 0x0 DUP2 SWAP1 POP SWAP3 SWAP2 POP POP JUMP JUMPDEST PUSH1 0x0 DUP3 DUP3 MSTORE PUSH1 0x20 DUP3 ADD SWAP1 POP SWAP3 SWAP2 POP POP JUMP JUMPDEST PUSH1 0x0 PUSH2 0xF8B DUP3 PUSH2 0xFF5 JUMP JUMPDEST SWAP2 POP PUSH2 0xF96 DUP4 PUSH2 0xFF5 JUMP JUMPDEST SWAP3 POP DUP3 PUSH1 0xFF SUB DUP3 GT ISZERO PUSH2 0xFAC JUMPI PUSH2 0xFAB PUSH2 0x1076 JUMP JUMPDEST JUMPDEST DUP3 DUP3 ADD SWAP1 POP SWAP3 SWAP2 POP POP JUMP JUMPDEST PUSH1 0x0 PUSH2 0xFC2 DUP3 PUSH2 0xFD5 JUMP JUMPDEST SWAP1 POP SWAP2 SWAP1 POP JUMP JUMPDEST PUSH1 0x0 DUP2 ISZERO ISZERO SWAP1 POP SWAP2 SWAP1 POP JUMP JUMPDEST PUSH1 0x0 PUSH20 0xFFFFFFFFFFFFFFFFFFFFFFFFFFFFFFFFFFFFFFFF DUP3 AND SWAP1 POP SWAP2 SWAP1 POP JUMP JUMPDEST PUSH1 0x0 PUSH1 0xFF DUP3 AND SWAP1 POP SWAP2 SWAP1 POP JUMP JUMPDEST DUP3 DUP2 DUP4 CALLDATACOPY PUSH1 0x0 DUP4 DUP4 ADD MSTORE POP POP POP JUMP JUMPDEST PUSH1 0x0 JUMPDEST DUP4 DUP2 LT ISZERO PUSH2 0x102F JUMPI DUP1 DUP3 ADD MLOAD DUP2 DUP5 ADD MSTORE PUSH1 0x20 DUP2 ADD SWAP1 POP PUSH2 0x1014 JUMP JUMPDEST DUP4 DUP2 GT ISZERO PUSH2 0x103E JUMPI PUSH1 0x0 DUP5 DUP5 ADD MSTORE JUMPDEST POP POP POP POP JUMP JUMPDEST PUSH1 0x0 PUSH1 0x2 DUP3 DIV SWAP1 POP PUSH1 0x1 DUP3 AND DUP1 PUSH2 0x105C JUMPI PUSH1 0x7F DUP3 AND SWAP2 POP JUMPDEST PUSH1 0x20 DUP3 LT DUP2 EQ ISZERO PUSH2 0x1070 JUMPI PUSH2 0x106F PUSH2 0x10A5 JUMP JUMPDEST JUMPDEST POP SWAP2 SWAP1 POP JUMP JUMPDEST PUSH32 0x4E487B7100000000000000000000000000000000000000000000000000000000 PUSH1 0x0 MSTORE PUSH1 0x11 PUSH1 0x4 MSTORE PUSH1 0x24 PUSH1 0x0 REVERT JUMPDEST PUSH32 0x4E487B7100000000000000000000000000000000000000000000000000000000 PUSH1 0x0 MSTORE PUSH1 0x22 PUSH1 0x4 MSTORE PUSH1 0x24 PUSH1 0x0 REVERT JUMPDEST PUSH32 0x4E487B7100000000000000000000000000000000000000000000000000000000 PUSH1 0x0 MSTORE PUSH1 0x41 PUSH1 0x4 MSTORE PUSH1 0x24 PUSH1 0x0 REVERT JUMPDEST PUSH1 0x0 PUSH1 0x1F NOT PUSH1 0x1F DUP4 ADD AND SWAP1 POP SWAP2 SWAP1 POP JUMP JUMPDEST PUSH2 0x111D DUP2 PUSH2 0xFF5 JUMP JUMPDEST DUP2 EQ PUSH2 0x1128 JUMPI PUSH1 0x0 DUP1 REVERT JUMPDEST POP JUMP INVALID LOG2 PUSH5 0x6970667358 0x22 SLT KECCAK256 CALLVALUE ISZERO DIV 0xAC PUSH10 0xB882B4C92F1AB8CC2AE7 DUP9 0xEF SWAP13 0xE9 RETURNDATASIZE PUSH18 0x9782A8455D8C7D0A4E390164736F6C634300 ADDMOD STOP STOP CALLER "
        },
        "methodIdentifiers": {
          "declareWinner()": "14034bd2",
          "endGame()": "6cbc2ded",
          "gameStarted()": "5e123ce4",
          "owner()": "8da5cb5b",
          "startGame()": "d65ab5f2",
          "teamA()": "826df9aa",
          "teamB()": "8aa7c3e8",
          "updateScore(string,uint8)": "e4a753dd"
        }
      }
    }
  }
}